:020000040800F2
:10000000002000106DB10208D5B102089D8F0008D4
:10001000D5B10208D5B10208D5B102080000000030
:10002000000000000000000000000000D5B1020840
:10003000D5B1020800000000D5B10208B5B0000833
:10004000D5B10208D5B10208D5B10208D5B1020870
:10005000D5B10208D5B10208616800088D690008B1
:100060005169000815690008D968000831210008A5
:10007000212100081121000801210008F1200008B9
:10008000DD200008C9200008D5B10208D5B102085A
:10009000D5B10208D5B10208D5B102089D680008A3
:1000A00039A5000879A5000829A50008A1A5000820
:1000B00069A5000859A5000849A50008D5B102089E
:1000C000D5B10208D5B10208D5B10208D5B10208F0
:1000D000D5B10208592000084D2000084120000831
:1000E00025680008D5B10208D5B10208D5B10208CB
:1000F000D5B10208D5B10208D5B10208D5B10208C0
:10010000000000000000000000000000D5B102085F
:10011000D5B10208D5B10208D5B10208D5B102089F
:10012000B5200008A12000088D20000879200008D3
:1001300065200008D5B102080000000000000000A2
:10014000D5B10208D5B10208D5B1020800000000FF
:10015000000000000000000000000000000000009F
:100160000000000000000000D5B10208D5B102086F
:10017000D5B10208000000000000000000000000EF
:0801800000000000D5B10208E7
:10019000002870B51EDB0928044620DD012303EB8F
:1001A00083035B00B0FBF3F2092AF8D87BB10E4E53
:1001B000B4FBF3F00928CCBF57223022A6FB03E59D
:1001C000024403FB1044EB0801F8012BF0D100239B
:1001D0000B7070BD2D230B7040420131DBE73030D6
:1001E00001F8010BF3E700BFCDCCCCCC884230B492
:1001F0004FF001042ED301FB04F4B0FBF4F58D4263
:10020000F9D284B1AAB901E0B0FBF4F5092DCCBF55
:10021000572230222A4404FB150003F8012BB4FBBB
:10022000F1F4002CF0D100221A7030BC7047B0FB02
:10023000F4F5092DCCBF372230222A4404FB1500E7
:1002400003F8012BB4FBF1F4002CF0D100221A705A
:1002500030BC70470546002AEBD1D7E703685A1C2B
:1002600002601970704700BF2DE9F047089C25789F
:10027000002B804689460CBF4FF0200A4FF0300A11
:10028000661C35B3002A29DD334601E0024698B1E9
:1002900013F8011B501E0029F8D1971E60B13D468E
:1002A000013D51464046C8476B1C002BF8DC2578C1
:1002B00027EAE770013055B1041B29464046C8477C
:1002C000301916F8015B002DF7D1BDE8F087BDE8C5
:1002D000F087002A04DC2846BDE8F0870020EBE721
:1002E000571EDCE7DFED2B7AB4EEE70AF1EE10FAE9
:1002F0004ADDDFED296A9FED297A01E0B0EE670A59
:10030000B4EEC70AF1EE10FA70EE667AF6DC9FEDF5
:10031000247AF4EEC77AF1EE10FA38D5DFED1E6AD2
:100320009FED207A01E0F0EE407AF4EEC77AF1EE2C
:1003300010FA37EEA60AF6D4DFED1B7AB4EEE70A20
:10034000F1EE10FA14DDDFED137A37EEC00A60EE3D
:10035000006A9FED166A9FED167ADFED167AA6EE1B
:10036000867A20EE266AE6EE877AA6EE270A70479E
:10037000DFED117AB4EEE70AF1EE10FA44BFDFEDDB
:10038000087A37EEC00AE2E7F0EE407ABFE7B0EE57
:10039000670AD1E7DB0F4940DB0FC940E4CB1641C8
:1003A000DB0F49C0E4CB16C1DB0FC93F92E741B96F
:1003B0009730083C15A82ABEDB0FC9BF8368426886
:1003C000D0ED037A00EB83010133934281ED040AFF
:1003D000836004BF0023836000EB830393ED047A02
:1003E000036870EE277A9A42C0ED037A77EEC77AF7
:1003F000C0ED037A0CDA013307EE103AF8EEC76A63
:10040000B7EE007A87EEA60A036030EE070A70475F
:1004100007EE102AB8EEC77A87EE870A704700BF4A
:1004200090ED057A90ED004AD0ED066AD0ED014AD4
:10043000D0ED047A90ED035AD0ED025AA4EE007A82
:10044000B0EE406AB0EE470AB0EE667AA6EE247AC5
:1004500067EEC07AA0EE457AE6EE257A80ED057A61
:10046000C0ED067A704700BFD0ED007A90ED017ABA
:1004700030EE670AE7EE007AB0EE670AC0ED007A68
:10048000704700BF704700BF704700BF704700BF94
:10049000DFF8F8C12DE9F04FBCF80E70DCF8006011
:1004A000BCF80A20BCF80CA03C02361B4FEA1765CA
:1004B0004FF0000767EB050789B0B946B046CDE9B4
:1004C0000089BCF810400023CDE90423009BA4FB65
:1004D000066704FB0977AAFB0345019B4FEAD65840
:1004E0000AFB0355009E049B48EA47284FEAE75958
:1004F000A3FB0667019B9E46049B18F5FA624FEA30
:10050000D41ABCF8084003FB0E7749F10003CDE98B
:100510000623230C03932304340ABCF806600293D9
:10052000730C0593F3030493DDE902234AEA456A59
:1005300012EB0A024FEAE51B43EB0B03DDE904ABC8
:1005400044EA07641AEB040ACDE90223DDE9063424
:100550004FEA27254BEB050BB3F5FA6F74F1000456
:1005600040DA4FEA89024FEA880414EB080442EAB1
:10057000987545EB090504FB09F208FB0522A4FB6D
:1005800008451544A608DDE9022346EA8576AF1042
:100590006D104FEA3404BAEB060A6BEB070B121B23
:1005A00063EB0503CDE90223DDE90634364E4FF057
:1005B000FF37B34274EB070331DBDDE900452A4620
:1005C00004FB02F2A4FB0445E60FDDE9063405EB6B
:1005D000420546EA45069B1B4FEAE57764EB0704B4
:1005E000CDE90634DCF81440A4FB0A2304FB0B33EA
:1005F0004FEA525A4AEAC32A4FEA635BDDE9023402
:10060000BAEB03036BEB0404DB0B43EA444300B196
:10061000036009B1069B0B6009B0BDE8F08F40F69E
:10062000AC5414EB08044FF0000545EB090504FB3E
:1006300005F2A4FB044505EB4205261945EB050729
:1006400036196F41BA004FEA860E42EA9672BEEB47
:10065000040662EB05074FEAC509DDE902234FEA0C
:10066000C4087F104FEA360649EA5479B4EB08040F
:1006700065EB0905BAEB060A6BEB070B12196B4128
:10068000CDE9022399E700BF24FAFFFFDC1C00201C
:1006900050F8043C01224274143803B118477047E3
:1006A000C37C33B1012B03D14FF400630381704746
:1006B00070474FF480630381704700BF2DE9F04F0E
:1006C000DFF800A2DAF81850BAF81C30BAF920E0C6
:1006D000BAF91E40C3EB251202FB02F212135B00B3
:1006E000C3EBE5030EFB02FE04FB03F34FEAAE3E51
:1006F0000EEBE32EBEF5FA384FEAEE7949F1FF39F9
:1007000085B0A8FB084508FB09F3BAF92420CAF80C
:1007100034E005EB4303CDE900450193DDE900BC7E
:1007200002FB09F6BAF926400296029E029004FBEB
:100730000CF7E517D3170BFB057708FB0363A4FB46
:100740000B45A2FB08BC3D44260A9C4446EA0566CC
:100750004FEA0B324FEA0C332F12921943EA1B5324
:10076000BAF822607B41003243F50043A2FB064504
:1007700006FB03550EEB8E0380331B126E10EF1732
:10078000039356EA07038B4600F08F80BAF92A20BC
:10079000DAF8381002FB09F0D31708FB0300A2FBBC
:1007A000082303445D04C1F5801E45EAD235540494
:1007B000DDE90012BAF92C8008FB02F34FEAE87970
:1007C00001FB0931BAF92820009BA8FB0389D3005B
:1007D000724614EB0800019389444FEAE27345EB3B
:1007E0000901DD0700230093DDE900234FEACE7401
:1007F00012184B4145EA5E05A41A65EB0305221960
:1008000045EB050312196B4199019001801841EAEB
:10081000926159418B00820043EA9073101943EBB7
:1008200005018B00820043EA9073104600191946B7
:1008300032463B4669412AF0C5FABAF932204C13D8
:10084000450B45EAC14502FB04F6D31705FB0366D9
:10085000A2FB05233344BAF9306002FB04F405FB24
:10086000034406FB01FEA2FB0523F717234400FB0C
:1008700007EE540EA6FB0067774444EAC3144FEA20
:10088000D64800194FEA636548EA473869414FEA9C
:10089000E74918EB0008BAF92E4049EB01094FEA85
:1008A000182646EA096620013618029B0BB1360A63
:1008B0001E60BBF1000F02D0039BCBF8003005B0E7
:1008C000BDE8F08FDC1C0020704700BF374AF0B550
:1008D000B2F84AE0948FB2F84830B2F95250B2F907
:1008E0005470B2F94260B2F94EC0A4EB0E0403FB9F
:1008F00004F3DC132744EB0293FBF7F32344A3F543
:100900007A64B2F944E0B2F94C50D36504FB04F7C1
:100910003F1304FB06F607FB05F504FB0EF407FB8B
:100920000CF7B2F940E0D2F864C0F61206EBE72605
:10093000B2F9607006EB8E062D1405EB6435BE40EF
:10094000023502364CF25034B2F846E0ACEBA60663
:10095000AD103C4104FB06F405F50045002C0EFBF0
:1009600005F5A8BF62004FEAD535BABFB4FBF5F272
:100970005200B2FBF5F2141204FB04F50C4E40F6E3
:10098000DE3404FB05F403EB830306FB02F52414B9
:100990005B0004EB2544083304F6CF641B1102EB23
:1009A000241200B1026001B10B60F0BDDC1C00201C
:1009B00043E3FFFF90F82530024603F0FF0013B138
:1009C000002382F82530704770B582B00446036B6F
:1009D00090F844006A4606219847C0B19DF804008B
:1009E0009DF800609DF801109DF802509DF80320CD
:1009F0009DF8053041EA062143EA002342EA052238
:100A000009B212B21BB2A1830120E283238402B097
:100A100070BD00BFF0B583B0044643696A46062145
:100A20003B209847A0B19DF800709DF801109DF8FB
:100A300002609DF803209DF804509DF8053041EABE
:100A4000072142EA062243EA05236181A281E3816C
:100A500003B0F0BD036D026B70B50446DD69C2B131
:100A6000636B2BB12B0702D5236D08221A6270BD70
:100A70002A06F7D5A26A616A8A421FD0511CA06972
:100A8000A162825C2069266D81423285EAD3A3622D
:100A9000E8E7A906E4D5C26A1AB1988C80B29047FB
:100AA000DEE7C1699B8C4069DBB24E1CE6614354B2
:100AB000E169E368994228BFE261D1E7226D1368DA
:100AC00023F080031360CDE70A4B1B788BB130B461
:100AD000094B1C7864B1094B002503EBC4041A6868
:100AE00099885562D06808330143A342D160F6D19A
:100AF00030BC704740580020FC57002000580020B0
:100B0000294BF0B51C78002C4CD0284D4FF05C0ED2
:100B10000EFB005EDEF80460002E43D0F468002C6B
:100B200040D09EF80C3043EA41039AB2131283EA94
:100B3000121300EB40075340C0EBC707BF0003F0A0
:100B40000F0343EA0213002107F10C024C379BB25A
:100B50002A442F448EF80C1013F4004F14BF0E21BA
:100B6000072142F8041F5B00BA429BB2F4D15C2318
:100B700003FB00502268816D438935684FF6FE7093
:100B800002402260E8680A68DB439BB203401220FF
:100B9000EB606060097B02238B405360236843F065
:100BA00001032360F0BD00BF40580020AC5300207B
:100BB00010B40268047B11680223A340194209D0D3
:100BC0000649406800240C7001684FF6FE7421400D
:100BD000016053605DF8044B704700BF2967002037
:100BE000014B186804F022BE302E0020F0B583B00F
:100BF00004466B46062203211E2028F0CFF9002868
:100C00003CD09DF800509DF801109DF802709DF8B1
:100C100003209DF804609DF8053041EA052142EA71
:100C2000072243EA062309B212B21BB2144D06EEA4
:100C3000901A07EE102A07EE903AF8EEE66A95ED64
:100C4000005AD5ED025A95ED016AB8EEC77AF8EE72
:100C5000E77A66EE856A27EE257A67EE867AFDEEFC
:100C6000E66ABDEEC77AFDEEE77A16EE901A17EE49
:100C7000102A17EE903A2180A280638003B0F0BD65
:100C80000000002000B583B001AB0222F6217720DE
:100C900028F084F99DF804109DF80530034A43EAD2
:100CA0000123938703B05DF804FB00BFDC1C002028
:100CB00010B582B001AB0322F621772028F06EF93F
:100CC00009499DF805309DF804409DF80600B1F9EA
:100CD00060201B0243EA04430343C2F10802D340ED
:100CE0004B6602B010BD00BFDC1C002070B582B0A6
:100CF0006B460622F721762028F050F99DF8012056
:100D00009DF804309DF800609DF803509DF8024066
:100D10009DF80500074912011B0142EA063243EA29
:100D2000053342EA141243EA10138A638B6102B05E
:100D300070BD00BFDC1C002000B583B001AB0322F6
:100D40000021772028F02AF99DF805309DF804202D
:100D50009DF806001B0243EA0243184303B05DF806
:100D600004FB00BF08B5FFF7E7FF014B186008BDA3
:100D7000DC1C002008B5FFF7DFFF014B586108BD00
:100D8000DC1C002013460A460146682028F006B9FC
:100D900000B5002283B00A210C2028F08DF8142021
:100DA0000AF0EAF80F220A210C2028F085F80A2020
:100DB0000AF0E2F801AB032210210C2028F0EEF833
:100DC0000A200AF0D9F800220A210C2028F074F831
:100DD0000A200AF0D1F80DF10303012202210C20B0
:100DE00028F0DCF80DF10303012209210C2028F082
:100DF000D5F801220A210C2028F05EF8012003B06A
:100E00005DF804FBF0B585B005460DF1070301223E
:100E100002210C2028F0C2F818B19DF80730DB073A
:100E200003D40024204605B0F0BD02AB0622032106
:100E30000C2028F0B3F80DF10703012209210C2042
:100E400028F0ACF804460028EBD09DF8073013F0EA
:100E50000C0FE6D19DF80D009DF809709DF8081063
:100E60009DF80B609DF80A209DF80C3041EA07219F
:100E700042EA062243EA0023C1EB8131C2EB82320F
:100E8000C3EB8333890092009B0029806A80AB808A
:100E900001220A210C2028F00FF8C3E72E22F421AA
:100EA000772028F009B800BF054B93F86020920125
:100EB000343202F0FC02F421772027F0FDBF00BF9E
:100EC000DC1C002001225821772027F0F5BF00BF4D
:100ED00001224821772027F0EFBF00BF3122F42103
:100EE000762027F0E9BF00BF0A460146682027F0B8
:100EF000E3BF00BF38B5054600BF064CA06E05F045
:100F000071FC284620F042FDA06E05F071FC00BF88
:100F100038BD00BFDC1C0020C36A70B5044633B185
:100F2000187804F019FC054605F072FC48B3636BB1
:100F300080216B20984764200AF01EF8636B032120
:100F40006B209847636B94F82410192098470F2062
:100F50000AF012F8636B94F822101A209847636B1A
:100F600018211B209847636B18211C209847636B3E
:100F7000022137209847636B01213820BDE870407B
:100F800018472023E8710146AB71284605F06EFA38
:100F90002146054B41F8143F284628F0E7F928463A
:100FA00028F0D0F9C3E700BF910600082DE9F0430F
:100FB000322083B009F0E0FF112200211E2027F02B
:100FC0007BFF602201211E2027F076FF642009F0BC
:100FD000D3FF6846FFF70AFE0024DFF86C81254640
:100FE00026460A27012202211E2027F065FF322013
:100FF00009F0C2FF6846FFF7F9FDBDF90000BDF931
:101000000210BDF9042088420346A8BF0B46934254
:10101000A8BF1346434506440D441444C0F28680DD
:10102000013FDFD14FF00109122200211E2027F0DD
:1010300043FFDFF814810A27012202211E2027F036
:101040003BFF322009F098FF6846FFF7CFFDBDF95E
:101050000000BDF90210BDF9042088420346A8BF74
:101060000B469342A8BF13464345A6EB0006A5EBEB
:101070000105A4EB020456DB013FDDD107EE906AC7
:10108000F8EEE76A07EE905AB8EEE77A07EE904A74
:10109000DFED285A9FED285A284EF8EEE77A85EEC4
:1010A000A66A702200211E20C5EE876A85EE277A87
:1010B000B0EEC66AF0EEE66AF0EEC77A86ED006A38
:1010C000C6ED016AC6ED027A27F0F6FE2022012164
:1010D0001E2027F0F1FE002202211E2027F0ECFE48
:1010E000642009F049FFB9F1000F04D14FF07E539D
:1010F00033607360B360124CE06E10B105F088FB92
:1011000018B9012003B0BDE8F0830E4BE06E2367F1
:1011100004F1700128F02AF9E06E28F013F901209B
:1011200003B0BDE8F0834FF00009A7E74FF00009D6
:101130007AE700BF00406F4601C05E460000002015
:10114000DC1C00208D04000801F0FFFFF0B506460E
:1011500083B00D460024012714E003290CBF0322AD
:101160000122C3F3011E6946C3F3810330468DF8A3
:1011700005208DF806E08DF8073018F00FFD0134DA
:10118000102C0FD02B8807FA04F21342F7D0AB785B
:10119000E9780092022903F003028DF80420DCD1E3
:1011A0000A46DEE703B0F0BD2DE9F04F8C4A8D4BC7
:1011B0008D498E4FD31A8FB01B0901330093A2F1D2
:1011C0000F0303938A4BCB1A02930323019300234B
:1011D000874A08920A93029A0B930C930D93854BBE
:1011E00009921B691A0605D5824B834A5A6002F19F
:1011F00088325A607F4B0122342100208DF8342040
:10120000D9609C2305A98DF8170008A88DF8143023
:1012100005F0C6FC9DF817309DF81420774953401F
:1012200008A840F25C628DF8173005F0B9FC9DF813
:101230001720724B13F8011BBB4282EA0102F9D15D
:101240008DF817206E4B039A934247D2DFF894B182
:101250004FF0000A0DF11E063BF80E1C3BF8102C57
:101260004FF00003C1F30B05C2F30B008DF81D30E6
:10127000AC1D120B0B04ADF81840ADF81A008DF838
:101280001C206AD4062206A908A805F089FC9DF84E
:10129000170006AA12F8013BB24280EA0300F9D116
:1012A0002A465BF80C1C8DF8170008A805F078FC9E
:1012B0005BF80C2C9DF817101544AA4205D012F8C3
:1012C000013B954281EA0301F9D18DF81710009B8B
:1012D0000AF1010A53450BF1100BBDD1022206A9F8
:1012E000002408A8ADF8184005F05AFC9DF8173006
:1012F0009DF818109DF819204B405340DB43012204
:101300000DF1170108A88DF8173005F049FC0B9A6C
:10131000002A55D10C989DF834305BB990B1019BEF
:10132000013B01937FF453AF052009F003FB0FB09D
:10133000BDE8F08F2F4B2F4A1B6943F080031361E8
:101340000028ECD12A4B1B789C2BEDD105F07AFCC0
:101350000028E9D00FB0BDE8F08F4FF00009C84673
:1013600008F1010806225FFA88F806A908A88DF896
:101370001D8005F015FC9DF8172006AB13F8011B26
:10138000B34282EA0102F9D15BF80C4C8DF81720C8
:101390004C4421462A4608A805F002FC61198C42FB
:1013A0009DF8173005D014F8012BA14283EA0203FF
:1013B000F9D1B8F1030F8DF81730A944D0D186E7E1
:1013C0000AAB98182146C2F104022DF086FD0A9A54
:1013D0000C9908A805F07AFB0B940C909BE700BFD2
:1013E000C3590308C459030800000408C06300205F
:1013F00000F003080020024023016745645D0020DF
:10140000B45903080378202B024600F10100F9D0FB
:10141000092BF7D02D2B2CD02B2B03BF5378B7EEF5
:10142000000A0246B7EE000AA3F13001C8B209284B
:101430009FED467A10D8F2EE046A07EE901AF8EEA5
:10144000E77A12F8013FE7EE267AA3F13001C8B23D
:101450000928B0EE677AF0D92E2B4CD003F0DF03C9
:10146000452B0BD0F7EE007A67EE276A20EE260AAE
:1014700070475378BFEE000A0246D5E710B45178A2
:101480002D2959D02B290ABF9178501C901C00247B
:10149000A1F13003092B53D8002303EB830301EBA5
:1014A000430310F8011FA1F13002092AA3F1300310
:1014B000F3D9B3F59A7F28BF4FF49A73072B42D91B
:1014C000DFED236A1A46F7EE007A083A072A67EE3C
:1014D000A67AFAD803F007032BB1F2EE046A013BB7
:1014E00067EEA67AFBD124B3C7EE276A5DF8044BFA
:1014F00020EE260A70475378A3F13001C8B20928BC
:1015000002F10102AAD8F2EE046AF0EE665A07EE82
:10151000901AF8EEE77A12F8013F87EEA66AA3F177
:101520003001C8B2092866EEA56A37EE067AEED910
:1015300094E767EE276AD9E7901C91780124A7E722
:10154000F7EE007ACFE7F7EE007AC5E7000000007B
:1015500020BCBE4CB5EEC00ADFED317AF1EE10FAD8
:10156000CCBF30EE270A30EE670ADFED2E7A20EE90
:10157000270A30B5FDEEC07A87B017EE904A0546CF
:1015800084EAE470002303A9A0EBE47001930093C4
:10159000029323F0EFFD002CACBF20232D2303A8E2
:1015A0008DF8003028F010FF012803A924D002286C
:1015B0002DD0032805BF3023684668468DF80130DA
:1015C0002DF0E6FC684628F0FFFE0338C4B2224640
:1015D000694628462DF03AFD00232B55284628F071
:1015E000F3FE2E22431C2A540DEB0401E8182DF0C3
:1015F000ECFC284607B030BD302368468DF801303A
:101600008DF802308DF803302DF0C2FCDAE730237C
:1016100068468DF801308DF802302DF0B9FCD1E725
:101620006F12033A00007A442DE9F0410646154650
:101630000846B6FBF2F43CB905FB1464124B1B5D83
:1016400000F8013BBDE8F081B4FBF2F767B90E4B3F
:1016500005FB174705FB1464DA5D00F8012B1B5DE1
:1016600000F8013BBDE8F081B7FBF2F8B8F1000FDC
:1016700002D04046FFF7D8FF05FB1878024B13F85D
:10168000082000F8012BE3E7A823030830B4026820
:101690001146531C036011F8024B0160D31C5178B2
:1016A00003609378151D05601B0443EA0123D0787D
:1016B000234343EA006030BC704700BF0368591CF5
:1016C0001A46016012F8021B0260587841EA0020B5
:1016D000704700BF38B50446006815462BF0C4F9C2
:1016E00022682A44226038BD03685A1C026010B484
:1016F000197003680A0A5C1C04601A7003680A0CFB
:101700005C1C04601A700368090E5A1C0260197090
:101710005DF8044B704700BF03685A1C02601970E3
:101720000368090A5A1C0260197070472DE9F047D6
:10173000002488B080460F461E46A14605AD531CC6
:101740000393117839B3252933D1931CCDF8109028
:101750000393507830284ED04FF0000AA0F13003A8
:10176000DBB2092B42D96C2819D0642800F0938091
:1017700024D825281CD063D9582876D063281BD1BB
:1017800031784046B847039A531C039311780436C6
:1017900001340029D7D1204608B0BDE8F087039B6B
:1017A0005A1C03921B78642B7CD02AD8252B54D149
:1017B000252140460134B847039AC0E7732833D047
:1017C00044D975284FD106F1040E30682B4600220B
:1017D0000A217646FEF70AFD049A009553463946DB
:1017E0004046FEF741FD039A0444A8E704AA03A972
:1017F00021F068F8B7E7D31C039390784FF0010A03
:10180000ACE7732B10D05BD9752B3AD0782B96D1DF
:10181000A3F15802B2FA82F2306852092B46102125
:101820000436FEF7E3FCD7E73368049A00933946A1
:1018300000234046FEF718FD04360444039A7EE771
:101840000028B9D1204608B0BDE8F0876E28B3D192
:10185000039A336804361C6071E72AD9582BD7D015
:10186000632B8DD06BE77828A6D1A0F15802B2FA8D
:1018700082F2306852092B461021FEF7B7FC04367D
:10188000AAE706F1040E30682B4600220A217646AC
:10189000FEF7ACFCA0E7331D306829461E46FEF774
:1018A00077FC99E7331D306829461E46FEF770FC29
:1018B00092E7002B7FF443AF204608B0BDE8F087E5
:1018C0006E2BC6D03BE700BF0EB400B584B005ABAD
:1018D000019053F8042B0649039301A8FFF726FF54
:1018E000019B00221A7004B05DF804EB03B070474E
:1018F0005D0200080FB430B583B006AB0A4853F858
:10190000042B416F806F0193FFF710FF074C0546D2
:10191000206803F077FF0028FAD0284603B0BDE81E
:10192000304004B0704700BFDC1C0020302E002087
:1019300041404A0011F0800F82F0D503D2B2DBB2F1
:1019400008BF1346590013F0800F81F0D502C9B2C9
:10195000D2B208BF0A46510012F0800F81F0D503C1
:10196000C9B2DBB208BF0B46590013F0800F81F0FB
:10197000D502C9B2D2B208BF0A46510012F0800F98
:1019800081F0D503C9B2DBB208BF0B46590013F092
:10199000800F81F0D502C9B2D2B208BF0A46510009
:1019A00012F0800F81F0D503C9B2DBB208BF0B463D
:1019B0005A0082F0D50013F0800FD2B2C0B208BF37
:1019C0001046704780EAE073A3EBE0738B4205DBBF
:1019D000002801DD401A704702D17047002070478F
:1019E00008447047F0EEC07AB0EEE07AB4EEE77AE1
:1019F000F1EE10FAB4BFB0EE676AB0EE476AB5EE2A
:101A0000406AF1EE10FA46D0B4EEE77AF1EE10FA41
:101A10008CBFF0EE675AF0EE475AC5EE866A9FED2E
:101A20001F3A9FED1F6A9FED1F4A9FED1F5ADFED82
:101A30001F3ADFED1F4ADFED1F5AA6EEC36AE6EE3E
:101A4000A34AA6EE864AB7EE006AA6EE845AA6EE30
:101A5000A46AE6EE855AC5EE866AB4EEE77AF1EE40
:101A600010FA48BFDFED147AF5EEC00A48BF77EEF2
:101A7000E66AF1EE10FA48BFDFED107AB5EEC00A63
:101A800048BF77EEE66AF1EE10FA48BFF1EE666AFB
:101A9000B0EE660A7047DFED076ADEE739094E3DB2
:101AA000E3B59E3E88FA163E45FE7F3F99FB243FF4
:101AB00069A2163EA7DFA834DB0FC93FDB0F494000
:101AC000DFED317A30EE277AFDEEC76A16EE903AF6
:101AD0002033402B02D99FED2D0A7047B4EEE70A60
:101AE000F1EE10FA4DDD9FED2A6ADFED2A6A01E082
:101AF000B0EE677AB4EEE67AF1EE10FA77EE467A57
:101B0000F6DC9FED257AF4EEC77AF1EE10FA35D5C2
:101B1000DFED1F6A9FED217A01E0F0EE407AF4EEEE
:101B2000C77AF1EE10FA37EEA60AF6D4DFED167A90
:101B3000B4EEE70AF1EE10FA1BDCDFED197AB4EE31
:101B4000E70AF1EE10FA44BFDFED137A37EEC00A70
:101B500060EE006A9FED136A9FED137ADFED137A52
:101B6000A6EE867A20EE266AE6EE877AA6EE270AA9
:101B70007047DFED0F7A37EEC00AE9E7B0EE670A8B
:101B8000D4E7F0EE477ABCE7DB0FC93F0000000066
:101B9000DB0FC940E4CB1641DB0F49C0E4CB16C1D3
:101BA000DB0FC9BF92E741B99730083C15A82ABEA0
:101BB000DB0F4940FDEEC07A17EE903A2033402B00
:101BC00051D8DFED2D7AB4EEE70AF1EE10FA50DDD0
:101BD000DFED2A6A9FED2A7A01E0B0EE670AB4EEE3
:101BE000C70AF1EE10FA70EE667AF6DC9FED257A00
:101BF000F4EEC77AF1EE10FA38D5DFED206A9FEDEA
:101C0000227A01E0F0EE407AF4EEC77AF1EE10FAB3
:101C100037EEA60AF6D4DFED1D7AB4EEE70AF1EE50
:101C200010FA1BDCDFED1A7AB4EEE70AF1EE10FAD7
:101C300044BFDFED147A37EEC00A60EE006A9FED14
:101C4000156A9FED157ADFED157AA6EE867A20EEFD
:101C5000266AE6EE877AA6EE270A7047DFED067A57
:101C600037EEC00AE9E79FED0E0A7047B0EE670A4B
:101C7000D1E7F0EE407AB9E7DB0F4940DB0FC9400E
:101C8000E4CB1641DB0F49C0E4CB16C1DB0FC93FE3
:101C9000DB0FC9BF92E741B99730083C15A82ABEAF
:101CA00000000000074A084B10781B78074A83425F
:101CB00096BFC31AC3F18003002012681844104471
:101CC000704700BF48450020C4440020144700204E
:101CD000064A074B10781B7883428ABFC3F1800302
:101CE000C01AC018C0F17F00704700BF48450020EF
:101CF000C444002010B5134C94F87C3082B023B952
:101D0000012084F87C3002B010BD052200238DF83C
:101D100000208DF8013000BFA06E04F063FD69461D
:101D200001A81FF0F5FDA06E04F062FD00BF9DF854
:101D3000053003F0010383F0010084F87C3002B029
:101D400010BD00BFDC1C002070B5064C064625689F
:101D500003E023685B1BB34203D8FFF7CBFF0028E7
:101D6000F7D070BD485D00202DE9F04F89B0B2F189
:101D7000000801900391029340F39E800B460022DD
:101D800001EB880153F8040B8B420244FAD1029B09
:101D90000592002B00F08880059B002B5DD04B4BFB
:101DA000DDF814B01B685FFA83FA0AEB0B02B2F598
:101DB000807F474AD2688CBFCAF5807ADA469A4259
:101DC0005DD9190C1A0A4FF0020406208DF81F3055
:101DD0008DF81E208DF81D108DF81C40FFF7B4FF04
:101DE0000620FFF787F83B4A012382F87C3000BFCA
:101DF000906E04F0F7FC07A900201FF04BFD0024B3
:101E0000039D019E5746A1462968A30000200A466B
:101E1000013459B1B94224D2316827F023FB2A6832
:101E2000336813443360BF1AC5F80090A04505F12C
:101E3000040506F10406E7D1264B986E04F0D8FCA1
:101E400000BF224B214A1B6853441360029AABEB3C
:101E50000A0B0AB3BBF1000FA5D1059809B0BDE884
:101E6000F08F019C04933A46E15827F0FBFA049B5B
:101E70002A68E1583944D71BE1502F60DCE7059808
:101E80001549164AA0EB0B000590059800230B702E
:101E9000137009B0BDE8F08F059BA3EB0B0305930E
:101EA000059809B0BDE8F08FFFF724FF00287FF404
:101EB00073AF029B0593D0E7029C1CB9FFF71AFF92
:101EC0000594CAE700230593C7E700BF1447002025
:101ED0008C040020DC1C002048450020C444002065
:101EE00070B5104D104E2B7831788B4284B016D0DF
:101EF0000E4A03921A4402928CBF0C46CA1A04A9D5
:101F00008CBFC3F180020024012341F8102D02A8E8
:101F100002220194FFF728FF002333702B7004B0D6
:101F200070BD00BFC444002048450020C8440020C4
:101F300070B5194C194D23782978994284B027D06F
:101F4000174A03921A44029234BF0E46CA1A04A9D1
:101F500034BFC3F180020026002341F8102D02A8EF
:101F600002220196FFF700FF23781844C0B203064F
:101F70002B7848BF80F080008342207002D0002080
:101F800004B070BD002301202B70237004B070BD1D
:101F9000012004B070BD00BFC444002048450020AB
:101FA000C844002008B545F20820FFF7CDFE062002
:101FB000FEF7A0FF074B0122C72083F87C20FEF725
:101FC00099FF05480549064A002303700B7013600A
:101FD00008BD00BFDC1C002048450020C444002090
:101FE000144700202DE9F04182B00346060C050A93
:101FF000032406208DF80730884617468DF80560C3
:102000008DF806508DF80440FFF79EFE90B100BF9A
:102010000A4CA06E04F0E6FB01A900201FF03AFC78
:102020003A460021404627F01DFAA06E04F0E0FB7E
:1020300000BF384602B0BDE8F08100BFDC1C0020C4
:102040000148FEF707BD00BFA82200200148FEF7A7
:1020500001BD00BF542200200148FEF7FBBC00BFB9
:10206000002200200348D0F83C3113B100F59A70EB
:1020700018477047041900200348D0F8203113B1E5
:1020800000F58C7018477047041900200348D0F8F9
:1020900004310BB1FC301847704700BF0419002011
:1020A0000348D0F8E8300BB1E0301847704700BF64
:1020B000041900200348D0F8CC300BB1C4301847C5
:1020C000704700BF041900200348D0F8B0300BB1AE
:1020D000A8301847704700BF041900200348D0F803
:1020E00094300BB18C301847704700BF04190020A2
:1020F0000248836F0BB170301847704704190020F5
:102100000248C36D0BB154301847704704190020C2
:102110000248036C0BB1383018477047041900208F
:102120000248436A0BB11C3018477047041900205D
:102130000248836803B11847704700BF04190020A4
:102140001749184B184A194810B4D1F8884044F47C
:102150007004C1F888401C6844F001041C605C688D
:1021600022405A601A6822F0847222F480321A6087
:102170001A6822F480221A605A6822F4FE025A6019
:10218000DA6A22F00F02DA621A6B002410404FF074
:10219000006218639C608A605DF8044B704700BF62
:1021A00000ED00E0001002400CC07FF8CCFC00FF06
:1021B0002DE9F04F2DED028B8FB0009016F0E1FC71
:1021C000844B1D7825B10FB0BDEC028BBDE8F08FBC
:1021D000DFF85CB2DBF800305F05F4D57E4BDFF84A
:1021E00054A21B78002B40F029817C4B1B78002BDC
:1021F00061D07B4C0099D4F86C317A4ACB1A934267
:1022000001F2D48294F8CC5185BB774E306803F04C
:1022100009FBC0B201280FD9022841F0E087734BB7
:102220001A78002A42F01C82D4F8D02100998A1A28
:10223000B2F57A6F82F04F83D4F8D421002A3AD0D5
:1022400094F8CC31ABB96A4B30681B689B7801229B
:10225000022B84F8CC214FF0020101F218870430E0
:1022600016F093FB002384F8E03121E0D4F8D42168
:102270000AB3D4F8DC31009840F6B731C31A8B4268
:1022800019D994F8D831002B41F0E686584AC4F8A1
:10229000D431126884F8CC319378022B524B01F27E
:1022A000B28718680121043016F06FFB16F086FB28
:1022B000009BC4F8DC314F4BDAF800501B7843B177
:1022C0004D4E306828B14D4B1B78013B012B41F23C
:1022D0006C834B4B1B785BB14A4E306840B1404D2C
:1022E000DAF80070D5F81433FB1A632B00F28781FB
:1022F000454C2378022B01F0F085444E3378032BB4
:1023000001F04083424B1B7883B1DFF82C91D9F860
:1023100000305BB1324C08F089FDD4F81C330290D8
:1023200044F61F62C31A934200F2C481394B1B78F2
:10233000002B40F03681384B1B78002B3FF443AF25
:10234000274C009AD4F8743403F5C333A0339A426F
:10235000FFF439AF114694F87834304AC4F8741455
:1023600002EB8302526C42B30EAD04F27F432C4E5B
:1023700045F8203D002104F29143318007938021EC
:102380001523A52784F87E34284684F87D1484F824
:102390007C74904728463188FFF7BEF9069D214896
:1023A00004F27C416D1A152DA8BF15252A462AF086
:1023B0005BFB1D4A94F8783415701C4A013382FB8C
:1023C0000312A2EBE37202EB42029B1A84F8783408
:1023D000F9E600BF282E0020083A00200B3A002022
:1023E000681D00203F0D0300AC3900209C00002038
:1023F0000C3A0020113A002098390020183A0020A9
:10240000203A0020243A002074720020D51A0020BF
:10241000303A0020403A0020413A0020B0F802084B
:1024200060390020184F00202D4F0020565555557B
:102430002C640020485D0020343A0020924CDAF8E9
:102440000020D4F85C31D31A7C2B7FF6CEAE94F802
:1024500060318E4F9FED8E8AC4F85C21013384F881
:102460006031A7F130082426304616F0E1FAB8F8BA
:102470000830F7EC016A07EE103AF8EEE66AB8EEBB
:10248000C77A0136C6EE877AF6B267EE887AFDEE35
:10249000E77ACDED017ABDF904905FFA89F016F084
:1024A0009DFAC9F3072016F099FA272EDCD13020C7
:1024B00016F0BEFAD4F86461764FF0B216F08EFAD8
:1024C000C6F3072016F08AFA38685E2103F0AEF9E9
:1024D00094F8603113F0030629D1D4F85C2141F25D
:1024E00088339A4202F2C081142016F0A1FA6A4B96
:1024F0006A4AB3F9043082FB0312DE17C6EBA20668
:1025000036B2F0B216F06AFAC6F3072016F066FA91
:102510001C2016F08DFA002016F060FA002016F04C
:102520005DFA5E21386803F081F994F8603113F0A8
:10253000070601F09486282B7FF457AE002517205C
:10254000DAF8006084F8605116F072FA284616F046
:1025500045FA534B534CA3FB06239B0BA4FB0312DE
:102560005209C2EB0212A3EB8203D8B216F036FA7C
:10257000182016F05DFA4C4BA3FB06239B09A4FB25
:1025800003125209C2EB0212A3EB8203D8B216F077
:1025900025FA284616F022FA38685E2103F046F93B
:1025A00023E6424C2278002A41F0F780364C009A0C
:1025B000D4F8683403F5C333A0339A42FFF4BBAEBA
:1025C00094F87134C4F86824234493F86C74FA07BF
:1025D00001F17287BB0701F1F9867E0701F1D0870F
:1025E0003A0701F19B8594F8713494F87214013321
:1025F00093FBF1F201FB123384F871349BE6002364
:10260000242185F8183303F011F95421306803F0C0
:102610000DF94121306803F009F91F4B1F4AB3F946
:102620000430306882FB0312DC17C4EBA20424B22E
:102630005FFA84F8414603F0F9F895F818333068EA
:10264000C4F3072488EA0308214685F8188303F0B9
:10265000EDF895F8183330685C40214685F818434A
:1026600003F0E4F895F81933114AC5F814730133EF
:10267000DBB2A2FB0312D20802EB8202A3EB4203FD
:1026800085F8193334E600BF681D0020C82A0020F1
:1026900000007A44B0390020F82A00206766666698
:1026A00073B2E74589888888D34D6210003A0020CC
:1026B000CDCCCCCC94F82233002B41F0EC84D04B21
:1026C0001A6802F00803002B48F603414AF60B4053
:1026D0004BF60F4349F6074504BF03460D4612F07B
:1026E000040F4FF0190118BF1D46960684F82213F7
:1026F00003D545F4804545F02005DBF8003013F0A4
:102700000203C5F3090842F001804FF0FF36642050
:10271000002706950795ADF82860CDF82080ADF824
:1027200026308DF83600ADF82470CDF82A70CDF83B
:102730002E70CDF8327006AE0FCEB24D84F85170C7
:102740000FC596E80F0007C525F8023B294601266C
:102750001B0CFE251F20C82201F81E3984F84E509C
:1027600084F8522084F8536084F84F0094F83203C0
:1027700084F8500080F0F10383EA0313DAB21309FE
:1027800083F0E70343EA022383EAC2031BB283EA2E
:102790000312D2B2C3F3072383EA121343EA0223DC
:1027A00083EAC2031BB283F0C80282EA0212D2B2E9
:1027B000C3F3072383EA121343EA022383EAC20323
:1027C0001BB283EA060585EA0515EDB2C3F30722BD
:1027D00082EA151242EA0522304482EAC50584F8ED
:1027E0003203A4F84C5001F11F0011F8013B6B407B
:1027F00083EA0313DBB21A0982EA152242EA0322B2
:1028000082EAC3031BB29DB28142A4F84C50ECD1C2
:1028100083F07C0383EA0313DBB21E0986EA1526E4
:1028200086EA032686EAC30636B2B3B24FEA132E0F
:10283000F6B2DFF8E8C1A4F84C3084F874E084F80C
:10284000736004F14E0704F16E0838687968BA685D
:10285000FB6865460FC510374745AC46F5D138686B
:102860002860694D3B798CF8043005F1270784F81E
:10287000816384F882E315F8011FD9F8000002F0A3
:10288000D5FFAF42F7D194F82323002A41F01784F3
:102890005E49DAF8003008780A2184F8231300280A
:1028A00001F0D3845A4E01283188059142F23882D2
:1028B00071880391022802F05F80B1880491032897
:1028C00002F03D82F1880191042802F0328205284D
:1028D000318902F01D820628B6F80AC002F014827F
:1028E0000728B58902F01982B6F80EE094F8328311
:1028F000069388F0300383EA0313DBB21809454AD4
:1029000084F8508080F07A00128840EA032080EA40
:10291000C3034148C2EB022280FB02601044D2177D
:10292000C2EB602205988DF82D20002760F30F0779
:102930000498002660F30F0600201BB261F30F001D
:10294000002165F30F0183EA0315C3F30723049302
:10295000039B63F31F47019B079763F31F46049B89
:102960000896EDB26CF31F406EF31F4183EA151316
:102970004FF0000C09900A918DF82CC043EA05260F
:102980000DF1180EBEE80F0086EAC5052DB285F0E0
:10299000C8071C4E84F851C087EA0717FFB2C5F379
:1029A00007250FC685EA171545EA07239EE80300A9
:1029B00083EAC7073BB283F0230246F8040B82EA9E
:1029C0000210C0B2C3F3072282EA101242EA0022C8
:1029D00026F8141982EAC00008F1010816222327FC
:1029E000FE25C82384F83283A4F84C0084F8537081
:1029F000B11884F84E5084F84F2084F852300FE01C
:102A000010670020BC1D0020C3200020505D002066
:102A1000C06300201667002003082080C420002027
:102A200016F8013B434083EA0313DBB21A0982EA3A
:102A3000102242EA032282EAC3031BB298B28E42FA
:102A4000A4F84C00ECD183F0F40383EA0313DBB267
:102A50001E0986EA102686EA032686EAC30625466C
:102A600036B21FFA86FC55F84E0FCB4FA4F84CC077
:102A7000F6B24FEA1C2E84F86A6084F86BE069684D
:102A8000AA68EB680FC728696969AA6904F25B350F
:102A900007C704F2793784F879E384F8786315F886
:102AA000011FD9F8000002F0C1FEAF42F7D194F83F
:102AB0002633002B41F0FE82B84B1B681922980682
:102AC00084F8262340F11483B54BB64E1B78990742
:102AD00041F14F873378042B8CBF0325022508F082
:102AE000A5F93178B04BB14E1B8836680396B04AD1
:102AF000AE4E17887668AF4A049603EB83035B00FB
:102B00000690ADF832304FF47A70039B12888DF83E
:102B1000351000FB07F700264FF6FF7006A9089353
:102B2000049B8DF834500A9707960993ADF830202E
:102B3000ADF82C00ADF82E000D4601910FCD9E4F43
:102B40000FC795E80F0007C73A46182722F81C3927
:102B5000039294F8322384F8516082F0780383EA78
:102B60000313D9B20B0983F0F60343EA012383EA86
:102B7000C1031BB283EA0311C9B2C3F3072383EA7B
:102B8000111343EA012383EAC1031BB283F0C80196
:102B900081EA0110C0B2C3F3072181EA101141EAB2
:102BA000002181EAC00109B281EA070383EA031028
:102BB000C0B2C1F3072383EA1013511C43EA002378
:102BC00084F83213039984F8502083EAC0031E2549
:102BD000FE26C8200A4684F84F502944A4F84C30F9
:102BE00084F8537084F84E6084F852001D4612F841
:102BF000010B684080EA0010C0B2030983EA152384
:102C000043EA002383EAC00000B285B28A42A4F8F6
:102C10004C50ECD180F0180080EA0010C0B24FEAAE
:102C2000101C8CEA152C8CEA002C8CEAC00C0FFAD4
:102C30008CFC1FFA8CF34FEA132E5FFA8CFC564F74
:102C4000A4F84C3084F873E084F872C004F14E05A7
:102C500004F16E0828686968AA68EB683E460FC6EA
:102C6000103545453746F5D1DFF858812868306082
:102C700008F1260584F880C384F881E3464616F8F7
:102C8000011FD9F8000002F0D1FDB542F7D108F0DC
:102C9000CDF8474B45491A88404B1B6891E8C00066
:102CA00013F0140F4FF47A7101FB02F141F0978594
:102CB000049194F832C306908CF06A0080EA001008
:102CC000C0B2030983F0D50343EA002383EAC003BB
:102CD0001BB283EA0315EDB2384A3948B2F9042031
:102CE0000897C3F3072383EA151343EA052383EA0E
:102CF000C5031BB280FB0250D217C2EBA00283F0C7
:102D0000C805ADF8322085EA0512D2B2C3F3072513
:102D10004FF0000E0991019F0499079685EA12155C
:102D20000A91ADF82CE0ADF82EE0ADF830E045EAC0
:102D3000022585EAC2050FCF039E84F850C02DB24C
:102D40000FC685F0210383EA0313DBB2C5F3072521
:102D500097E8070085EA131545EA032585EAC305C8
:102D6000154B039386E807001F4621201C220CF117
:102D7000010CFE21C82384F851E084F832C384F8A2
:102D8000530084F84F2084F84E1084F852303846AF
:102D9000A4F84C50BA1817E0C42000201067002097
:102DA000146700200A6700207C730020DC67002085
:102DB000787300207A730020BC1D0020F82A0020C0
:102DC00067666666C320002010F8013B6B4083EA0B
:102DD0000313DBB2190981EA152141EA032181EAD3
:102DE000C30319B28DB29042A4F84C50ECD181F0DB
:102DF000680181EA0111C9B24FEA111C8CEA15255C
:102E000085EA012C8CEAC10C0FFA8CFC1FFA8CF3BA
:102E10004FEA132E5FFA8CFCA4F84C30DD4F84F897
:102E200071E004F16E0384F870C004F14E05049360
:102E3000EB6828686968AA683E460FC6049B10358F
:102E40009D423746F4D12B88D34D3380464684F8D3
:102E50007EC384F87FE316F8011FD9F8000002F062
:102E6000E5FCB542F7D1CD4A94F832335168079169
:102E700083F0EB0181EA0111C8B2010981F0C501BB
:102E800041EA002181EAC00109B281EA0110C0B221
:102E9000C1F3072181EA101141EA002181EAC00152
:102EA00009B281F0C8061268069286EA0616F6B2E2
:102EB0004FF0000EC1F30725019ACDF820E085EA16
:102EC000161507CA45EA062585EAC6052DB2039FF1
:102ED000DFF8D4C284F8503085F0310687E8070067
:102EE00086EA0616F6B2C5F3072282EA161242EA0D
:102EF000062282EAC60294F8546094F8555094F879
:102F0000560094F8571084F851E012B2564086EA01
:102F10000616F6B2C2F3072282EA161242EA062227
:102F200082EAC60212B2554085EA0515EDB2C2F337
:102F3000072282EA151242EA052282EAC50212B28B
:102F4000504080EA0015EDB2C2F3072080EA151068
:102F500040EA052080EAC50000B2414081EA011143
:102F6000C9B2C0F3072282EA111242EA012282EAC0
:102F7000C10294F8586094F8595094F85A0094F8A3
:102F80005B1012B2564086EA0616F6B2C2F307226A
:102F900082EA161242EA062282EAC60212B25540BC
:102FA00085EA0515EDB2C2F3072282EA151242EA5C
:102FB000052282EAC50212B2504080EA0010C0B277
:102FC000C2F3072282EA101242EA002282EAC00219
:102FD00012B2514081EA0111C9B2C2F3072282EA5A
:102FE000111242EA012282EAC10294F85C6094F86C
:102FF0005D5094F85E0094F85F1012B2564086EA75
:103000000616F6B2C2F3072282EA161242EA062236
:1030100082EAC60212B2554085EA0515EDB2C2F346
:10302000072282EA151242EA052282EAC50212B29A
:10303000504080EA0010C0B2C2F3072282EA1012A8
:1030400042EA002282EAC00212B2514081EA011132
:10305000C9B2C2F3072282EA111242EA012282EACD
:10306000C10212B282F0270585EA0511C9B2C2F386
:10307000072585EA111545EA012585EAC1052DB226
:10308000AAB24FEA122E0133EDB23127FE260C20F0
:10309000C82184F83233A4F84C2084F8537084F8A3
:1030A0004E6084F84F0084F8605084F861E084F842
:1030B0005210DCF80C30DCF80410DCF80820DCF8E6
:1030C0000000BCF8106001960CF20E370FC7BDF877
:1030D00004303B800CF2213684F86FE384F86E53A1
:1030E00018F8011FD9F8000002F0A0FB4645F7D1FF
:1030F00094F82A63002E40F0D887294B94F8327355
:10310000B3F90010B3F90220B3F904309FED256A3A
:1031100084F8516007EE103ADAF80030069387F031
:103120006A0383EA031306EE901AD9B20B0983F0FF
:10313000D50343EA012383EAC1031BB283EA0311E7
:103140005242C9B207EE902AC3F3072383EA111350
:1031500043EA0123F8EEE77AF8EEE66AB8EEC77ABA
:1031600083EAC1031BB267EE867A66EE866A27EEB3
:10317000067A002083F0C805CDED087ACDED076A08
:103180008DED097A0A900B900C9085EA05150DF1EA
:10319000180C0BE0C4200020E7200020EC67002082
:1031A000F82A002088C3E43AB61D0020EDB2C3F32C
:1031B000072EBCE80F008EEA151E4EEA052E8EEA99
:1031C000C505DFF888E32DB2AEE80F0085F01E06D6
:1031D0009CE8070086EA0613DBB2C5F3072686EAF9
:1031E000131646EA03268EE8070086EAC306AEF108
:1031F00010051C20C8224FF0050C1E234FF0FE0EB8
:10320000791C84F8522084F82AC384F8533084F857
:103210004EE084F84F002A1884F85070A4F84C60EF
:1032200084F8321315F8013B734083EA0313DBB2D1
:10323000190981EA162141EA032181EAC3031BB27D
:103240009EB29542A4F84C60ECD183F0270383EA48
:103250000313DBB21F0987EA162787EA032787EAE9
:10326000C3073FB2BBB24FEA132EFFB2DFF8C8C2AA
:10327000A4F84C3084F871E084F8707004F14E06C4
:1032800004F16E0830687168B268F36865460FC56E
:1032900010364645AC46F5D19F4D3388ACF800302A
:1032A00005F1240684F87E7384F87FE315F8011F86
:1032B000D9F8000002F0BAFAAE42F7D194F82B63C5
:1032C000002E40F0ED86954B1B68052284F82B23D9
:1032D0009A0640F1B087924ADFED927A128807EEA3
:1032E000102AB8EEC77A13F0140F27EE277A01F0F0
:1032F0005C84D4F86434DFED8B6A07EE903AF8EE24
:10330000E77A67EEA67A94F832C3874B874AB3F917
:103310000410B2F90620864D86488DED077A8CF0B0
:10332000220383EA0313DFB23B09B2F5FA6F83F09D
:10333000590343EA0723A8BF4FF4FA6283EAC7039D
:10334000B2F57A7F1BB2B8BF4FF47A7283EA0317E3
:103350004FF0640EA2F57A72FFB20EFB02F2C3F3D5
:10336000072385FB025883EA171380FB0150D2170D
:10337000C91743EA0725C2EBA8124FF0000AC1EBB8
:10338000A0010DF11808CDED087A85EAC705ADF862
:103390002A20ADF82810CDF818A0CDF824A02DB221
:1033A000CDF80480B8E80F0085F0C80787EA071752
:1033B000FFB2C5F30725DFF894E1D8F8008084F860
:1033C00050C085EA1715AEE80F0045EA072585EAE3
:1033D000C70212B282F04A0383EA03137146DBB2DA
:1033E000C2F3072282EA131241F8108942EA03224B
:1033F0004A2082EAC303142700250CF1010C4FF088
:10340000FE0E84F85300C82003910A4684F85150F8
:1034100084F832C3A4F84C30394484F84EE084F880
:103420004F7084F852001D4612F8010B684080EA84
:103430000010C0B2030983EA152343EA002383EA9C
:10344000C00000B285B28A42A4F84C50ECD180F0A2
:10345000140080EA0010C0B24FEA101E8EEA152E4A
:103460008EEA002E8EEAC00E25460FFA8EFE1FFA57
:103470008EF855F84E0F304FA4F84C804FEA182CB8
:103480005FFA8EFE84F868E084F869C06968EB68CA
:10349000AA680FC7286969692B8B03C704F25B35DB
:1034A0003B8004F277382F4684F877C384F876E3BC
:1034B00017F8011FD9F8000002F0B8F9B845F7D1A4
:1034C0001E4B1F4A93F8EB321278013B12F00400B6
:1034D000DBB214BFC0214021172B03D8194A134473
:1034E00093F82C60184B1A8897071ABF002341F0F5
:1034F0001001012312F4027F18BF022312F0100FF3
:1035000018BF062312F0200F18BF1023002841F027
:10351000DA8103201CE000BFC320002010670020D8
:103520007A7300200AD7233CF82A0020C0630020C9
:10353000D34D621067666666C4200020645D00207B
:1035400009670020B0F8020858670020BC1D002061
:1035500094F83273069387F0460383EA0313DAB2D2
:10356000130983F0920343EA022383EAC2031BB2E6
:1035700083EA031E5FFA8EFEC3F3072282EA1E125D
:1035800042EA0E2282EACE0212B282F0C80E8EEA1F
:103590000E1E5FFA8EFE8DF81C60C2F30722032612
:1035A00000238DF8206082EA1E16019A8DF81D30E6
:1035B0008DF81E108DF81F0007CA46EA0E2686EA0F
:1035C000CE0636B2DDF80CE084F8533086EA061CED
:1035D000AEE803005FFA8CFCC6F3072181EA1C11F8
:1035E00041EA0C2181EACC0C94F854608EF800205A
:1035F0000FFA8CF2564086EA0616F6B2C2F307229C
:1036000082EA161242EA062294F8550094F85610FF
:1036100094F857C094F858E084F8513082EAC60212
:1036200012B2504080EA0010C0B2C2F3072282EA10
:10363000101242EA002282EAC00212B2514081EA2C
:103640000111C9B2C2F3072282EA111242EA012231
:1036500082EAC10212B28CEA020C8CEA0C1C5FFAFC
:103660008CFCC2F3072282EA1C1242EA0C2282EA94
:10367000CC0212B28EEA020E8EEA0E1E5FFA8EFEA7
:10368000C2F3072282EA1E1242EA0E2294F859601F
:1036900094F85A0094F85B1094F85CC084F8507069
:1036A00082EACE0212B2564086EA0616F6B2C2F39B
:1036B000072282EA161242EA062282EAC60212B201
:1036C000504080EA0010C0B2C2F3072282EA101212
:1036D00042EA002282EAC00212B2514081EA01119C
:1036E000C9B2C2F3072282EA111242EA012282EA37
:1036F000C10213B28CEA030282EA0212D2B2C3F30D
:10370000072383EA121343EA022383EAC2031BB2AC
:1037100083F0320282EA0212D2B2C3F3072383EAB1
:10372000121343EA022383EAC2031BB29AB24FF098
:10373000FE0EC34E84F84EE009204FEA122EC82137
:103740000137DBB284F84F0084F8521084F83273EA
:10375000A4F84C2084F85EE084F85D30306871682D
:10376000B268B6F80C8006F20E3707C706F21E36AE
:1037700087F802C0A7F8008084F86CE384F86B3304
:1037800015F8011FD9F8000002F050F8AE42F7D149
:10379000029BC4F81C33FEF7C9BDAA4BAA4918689E
:1037A00002F00CF800232370FEF700BFA74AA84BD5
:1037B00092F83363D4F89C01DAF800101B884FF4B8
:1037C0007A72091A02FB06F2DDB200201B0A91424E
:1037D00084F88E5184F8845184F88F3184F88531CF
:1037E00084F8720184F8740180F07284994B9A49CC
:1037F0001B689A4809689A4D80FB0326DB1780FBFB
:103800000120C3EBA603CA17C2EBA002954E29788C
:1038100084F88C311B1284F88D31131296F80090C5
:1038200084F891318B0784F8902184F8BA9140F1A3
:103830004B848D4B8D4A8E488E4F93E800508E4BB3
:1038400082FB0C1582FB0E124FEAEC71C1EBA55105
:103850001B8800FB01C64FEAEE75C5EBA25206EBD2
:10386000460603EBC30376009B0000FB02E002EB7D
:103870008202019302EB820287FB063800EB4000D4
:1038800040004FEAA84803924FEADE7EF21701EBB0
:10389000810187FB003701EB8101784B84F8AEE1B1
:1038A000A8EB020E0291724603FB1262029E744D57
:1038B000C117BF144FFA8EFE0EEB860E7E1A3146EC
:1038C00003FB1606039B6F4F6F482D8849B201EB2F
:1038D0008301019B87FB0337019B4FEADC7CDB17ED
:1038E00084F8A9C1DFF8B4C1C3EBA71780FB02833A
:1038F000D217C2EB631280FB0680BCF800C0634B9A
:1039000084F8AC211FFA8EFEF61705F5FA7589B218
:10391000C6EB6010B9F1050FADB284F8AAE14FEA29
:103920001E2E4FEA22264FEA112884F8B55184F85A
:10393000B3C14FEA15254FEA1C2C1B8884F8ABE174
:1039400084F8AF114FEA202EC7F3072134BF32228B
:10395000332284F8B08184F8AD6184F8B10184F831
:10396000B2E184F8A77184F8A81184F8B65184F8FC
:10397000B4C184F8BB2184F8BC31009BC4F86C311D
:10398000FEF740BC424D286803685B6998470028F1
:103990003EF4B8AC2868036801219B69984702226D
:1039A000002332702370FEF7ADBC3A4C3A4F4FF013
:1039B00001094FF0000808E01B2B00F0A1820D2B3D
:1039C00000F0728287F80190306801F02BFF002828
:1039D00066D0306801F01EFF83B27E2BDAF800203B
:1039E00027D07A78002AEFD194F8E2110029E3D0A9
:1039F0007D2B00F06F8294F8E6E1BEF1000F04D059
:103A000080F02003DBB284F8E6214A1CD2B2092AF6
:103A1000635484F8E22100F04D82082AD4D8B4F827
:103A2000E421134403EB132303F0FF03A4F8E43170
:103A3000CAE784F8E28184F8E38187F80180C3E76C
:103A4000B61D0020D4640020DC390020645D002015
:103A50006239002064390020942A00206766666677
:103A6000146700200A670020DC6700206BCA5F6BC8
:103A7000806967FF83DE1B437A73002040420F009A
:103A800078730020D34D62101F85EB51F66700203C
:103A900090640020681D00209C000020F467002036
:103AA00094F8E7312BB1637884F8E701302B00F00C
:103AB0003F8694F8E371C34ADFF844C3C249DFF894
:103AC00044E3DFF824933B4601262F461D4694F835
:103AD000F80294F80A33002D3EF4FBAB002840F0C6
:103AE0001882DAF80000C01B012800F2618202EBA4
:103AF0004300008930B30133B0F5E06FDBB200F072
:103B0000BF803DD8B0F5047F00F0D38058D8B0F521
:103B1000887F00F04881B0F5007F00F02D81B0F57E
:103B2000807FDED1086884F80A334307CFD5A74BDE
:103B30004FF48070996914F00EFF002384F8E3318C
:103B4000FEF7C7BB84F80A630B689806BFD59EF8DA
:103B500000309B07BBD59E4B9E491A884FF4F363F8
:103B600003FB02F381FB0321DB17C3EB61114FF46D
:103B7000036014F0F0FE002384F8E331FEF7A9BBE4
:103B8000B0F5026F00F0E1806CD8B0F5E46F7CD046
:103B9000B0F5006F00F0AF80B0F5E26FA1D18E4AB2
:103BA00084F80A33556B1189642303FB05F393FBF7
:103BB000F1F114F0D0FE002384F8E331FEF789BB65
:103BC000B0F5826F00F04D81B0F5C06F00F0388124
:103BD000B0F5806F85D194F80D1384F80A33013164
:103BE000CBB2032B00F2708142F2107184F80D33D6
:103BF00001FB03F1794B1B78D80748BF01319A07C5
:103C000048BF02315B07764B1B8848BF0431DF0792
:103C100048BF0A319E0748BF1431180648BF2831F3
:103C2000DA0548BF28315F0748BF64311E0748BF27
:103C3000C831980548BF01F5C8719A0648BF01F51B
:103C40007A71DF0648BF01F5FA615E0648BF01F5EB
:103C50007A614FF4806014F07EFE002384F8E33133
:103C6000FEF737BBB0F5046F14D0B0F5116F00F05C
:103C7000CB80B0F5036F7FF434AF84F80A3363E789
:103C8000554A84F80A33156B8DE7534A84F80A3392
:103C9000956B88E7534A84F80A33B2F9041001EBB4
:103CA0008101490014F057FE002384F8E331FEF748
:103CB00010BBDBF8000084F80A3380077FF507AFFC
:103CC0009CF80030002B3FF402AF474A92F83223B1
:103CD000002A00F09E82454A118891FBF3F101EB26
:103CE000810149004FF4047014F035FE002384F87C
:103CF000E331FEF7EEBA086884F80A3380067FF5F0
:103D0000E6AE9EF8000080077FF5E1AE13F0010FEC
:103D10003049374B00F080825A6882EAE273A3EBA5
:103D2000E27303EB5303A1FB0313D908002AACBFD2
:103D300041F0004141F040414FF4006014F00BFEAF
:103D4000002384F8E331FEF7C4BA84F80A330B6821
:103D50009B067FF5BCAE9EF800309B077FF5B7AEA3
:103D6000244B1B88642101FB03F114F0F4FD0023B4
:103D700084F8E331FEF7ADBA84F80A33DBF800309B
:103D800013F0082F3FF4A3AE1B4B1C491B6881FBAB
:103D90000321DB17C3EBA10114F0DDFD002384F840
:103DA000E331FEF796BA84F80A330B685B077FF5B8
:103DB0008EAED4F8641114F0CEFD002384F8E33104
:103DC000FEF787BAB0F80208106700207C44002094
:103DD0007A7300201F85EB51982A00200967002084
:103DE00058670020F82A0020645D00206239002016
:103DF000DC670020787300206439002067666666FF
:103E0000912A002014670020DBF8000084F80A33B0
:103E100083077FF55CAE9CF80030002B3FF457AE73
:103E2000B54A128802EB820251004FF4116091FBF7
:103E3000F3F114F090FD002384F8E331FEF749BA62
:103E400084F80A33DBF8003013F0082F3FF43FAE5C
:103E5000AA4B196814F07FFD002384F8E331FEF7C4
:103E600038BA84F80A330B6813F0200300F0A780F7
:103E7000A34BA44E1D78317805F00203002B0CBF34
:103E800000234FF47A7340F6B83208BF4FF4FA6259
:103E900015F0010F18BF1346194414F05CFD002300
:103EA00084F8E331FEF715BA84F8E2912370A4F8A0
:103EB000E41189E5B4F8E421C2F1FF0293427FF4F2
:103EC00081AD84F8E7917DE5012384F80D3342F25A
:103ED00010718FE684F8E69176E506F0A7FF8A4B2D
:103EE0001A6840F6B833801A984200F28281874DF2
:103EF0002B793A2B00F0BA8300232370FEF702BA25
:103F0000306801F08FFC00287FF45CAD84F8E39109
:103F10005AE5DAF80020D51B012D804648D8D4F8A0
:103F2000EC327B4E94F80B23B34200F0F584511C25
:103F3000D4F8F07294F80C6384F80B1302F00F02BB
:103F40008DF818200DF11902F91A002940F3648642
:103F500006A901910DF11E0502E0002840F34681FB
:103F60000133C4F8EC3213F8011C02F8011BAA4219
:103F7000A7EB030086EA0106EFD384F80C6300F098
:103F80004586501CA842167005D20EAB9A1A1B3AF1
:103F900000212AF0A2FF0199322014F0C1FC4FF059
:103FA0000008002384F8F88284F8E331FEF791B921
:103FB000002284F80A3384F8E321FEF78AB9DBF89B
:103FC0000000000600F1358399F83433002B3FF4EC
:103FD0007EAD94F80E13032900F2DC85DFE801F0D2
:103FE00032281902D4F8103359799A79DB7901F122
:103FF000407101EB022101EB0341002384F80E33F1
:104000004FF4826014F0A7FC002384F8E331FEF73C
:1040100060B9404B1A68937D507D127D1B0403EB01
:10402000002313444A1C84F80E2303EB0161E7E7E5
:10403000384B1A68137BD07A927A1B0403EB002367
:104040001344EFE7334B1A689378507812781B04C7
:1040500003EB00231344E5E7013BDBB284F8D831DE
:10406000002B00F0D68294F8E00112F8011B94F8BE
:10407000E131294DC4F8D42101330A18286884F8A5
:10408000E02184F8E13101F0D1FBFEF711B901F034
:10409000B5FBFEF7E7B8013B84F82233FEF7F3BB2C
:1040A000013E84F82B63FFF773BB013E84F82A635B
:1040B000FFF704B9013B84F82633FFF719B8013A3A
:1040C00084F82323FEF7F3BC2D2384F8BB3154E49A
:1040D000DAF80030C4F89C3118F026FD431EDBB23C
:1040E000012B3FF683AB1022022384F8722184F85F
:1040F0007431FFF77BBB00BF62390020942A002097
:10410000146700200A6700207C720020647200207F
:10411000541F0020002B0020AC390020D14BD24D81
:10412000D24E07930EAA1146A3F1220241F8202D88
:1041300000220F460191112103F8242C03F8231CBF
:1041400038460221327014F0F7FC2968384614F022
:1041500003FD6968C64D384614F0FEFCC54B1B884C
:1041600003EBC3039B00053385FB0325DB17C3EB80
:10417000A505C5F30721384614F0DEFCE9B2384640
:1041800014F0DAFCBC4B1B8803EB83035D00ADB27B
:10419000290A384614F0D0FC05F0FE01384614F028
:1041A000CBFCB64B1B789B0740F12183B44B1D8899
:1041B00005F57A75ADB2290AEDB2019E304614F0CC
:1041C000BBFC2946304614F0B7FCAE4B304619789C
:1041D00014F0B2FC304614F094FCFEF704BA14F06C
:1041E000EDFBA94B01221A70FEF726B884F80C6388
:1041F000C7E6A64AB2F81A3300210133A2F81A33EF
:104200002170FEF77FB80121186801F0F7FAFEF778
:104210004DB89F4B198862E51A6882EAE273A3EBF6
:10422000E27303EB5303A1FB0331C908002AB8BFB3
:1042300041F0804180E513F0140F9FED967A7FF4F2
:1042400058A8F0EE477AFFF75EB805468446014667
:1042500001900490039005908646FEF747BB02202C
:1042600014F0E6FB21F0F0F90378FF2B00F0408416
:1042700090F90130DE17F6B2D8B214F0AFFB304639
:1042800014F0ACFB032014F0D3FB21F0DDF903782C
:10429000FF2B00F02984B0F90830D8B2C3F3072609
:1042A00014F09CFB304614F099FB7B4ADBF800309D
:1042B0001A4206D0DFF8FC8198F80030002B40F05D
:1042C0006383764B1B689E0640F1C482DFF8AC81A5
:1042D00098F80030980700F10E840026012014F0B1
:1042E000A7FB284614F07AFB304614F077FB092030
:1042F00014F09EFB002014F071FB002014F06EFB04
:10430000674B604E1B883578B3F5967F0AD994F8D1
:10431000602102F00F02072A04D842F20F759D4275
:1043200028BF1D465F4E052014F082FB96F83033FF
:10433000002B00F08884A5F1200307EE903A9FED52
:104340005A7AF8EEE77AF6EE006A67EE877ABEEE02
:10435000007AF5EEC07AF1EE10FA58BFB0EE667A48
:1043600077EE877AFDEEE77ACDED017ABDF904505C
:10437000E8B214F033FBC5F3072014F02FFB98F8D4
:1043800000309A0700F1978394F86A31012B00F00E
:104390009283DFED466A96EDC97AD6EDCA7A27EEAA
:1043A000267A67EEA67ABDEEC77AFDEEE77A06A812
:1043B0008DED067ACDED077A14F04CFB5E2138685E
:1043C00001F034FA94F86031FEF7B5B8254B274D6B
:1043D00007930EAEA3F1220146F8201D4FF000080E
:1043E0000A2103F8231C304603F8248C082185F8A1
:1043F000008014F0A1FB264B1D883046290A14F0DA
:104400009BFBE9B2304614F097FB294B184D1B6813
:1044100085FB0325DB17C3EBA5053046C5F3072154
:1044200014F08AFBE9B2304614F086FB1D4BB3F85A
:104430006E5218F02DFB41468146304614F07CFB4D
:104440003046290A14F078FBE9B2304614F074FBC8
:104450003046494614F070FB304614F052FBFEF72C
:10446000BCB800BFDC390020DC670020B439002074
:10447000676666667A7300207C73002014670020EC
:10448000787300200A6700209C000020681D00202F
:1044900062390020000000000200000810670020C0
:1044A000D61A0020645D0020E4380E3F8096184B39
:1044B00064390020912A0020D04BDFF84CE3D04E25
:1044C00007930EADA3F1220145F8201D002208211B
:1044D00003F8242C03F8231C28461E218EF8002004
:1044E00014F02AFBB6F902309FEDC68A07EE903A27
:1044F000F8EEE77A284667EE887AFDEEE77ACDEDAA
:10450000017ABDF90480C8F3072114F015FB5FFAA6
:1045100088F1284614F010FBB6F9003007EE903A07
:10452000F8EEE77A284667EE887AFDEEE77ACDED79
:10453000017ABDF90480C8F3072114F0FDFA5FFA8F
:1045400088F1284614F0F8FAB6F9043007EE903AEC
:10455000F8EEE77A284667EE887AFDEEE77ACDED49
:10456000017ABDF90460C6F3072114F0E5FA284684
:10457000F1B214F0E1FA284614F0C3FAFEF72AB8B3
:104580009E4BA14D07930EAA1146A3F1220241F8BA
:10459000202DA3F1240800220191084603F8242CC1
:1045A000212188F801202A7014F0C6FA974B1B6865
:1045B0001D0140F1D081964E4FF00309954B1B88A9
:1045C000580500F11781D90700F1718203F0020349
:1045D000914A002B1CBF4FF003091646DDF804A0DA
:1045E000013E0025013516F8011F504614F0A4FACB
:1045F000A945F7DC019D0021284614F09DFA069B91
:10460000864A9B1A284688F8013014F07AFAFDF79A
:10461000E7BF94F8E01194F8E13181484A1C013376
:10462000006884F8E02184F8E13101F0FFF8FDF73B
:104630003FBE984610230422184606A98DF81A801A
:104640008DF81B808DF81C808DF81D808DF818303A
:104650008DF8192014F064F984F8E381FDF739BE70
:10466000009AC4F8D0211D70FDF7E6BDAF78C7B140
:10467000013FFFB201372F442E46002216F8013BBE
:10468000534083EA0313DBB2120AD90042EA032241
:10469000B74281EA131382EA0302EFD1002A7FF4C2
:1046A0002BAC604B6049614E1F680988D7F830E039
:1046B0005F4A604BB161B0665F49604812689B69B0
:1046C0000968B0F81A03B262B363B164B065BEF1B1
:1046D000000F00F00483DEF80430396C8B423BBFDE
:1046E000FA685B1A5B1A9B18002B7DF406AE3B68D8
:1046F000534E9B693846022198470423E87833706B
:1047000022F0F0F803232370FDF7F8BD464B484A2A
:104710001B88B2F9006003EB830303EB83039B0068
:104720009BB2019318F0B4F9019B40B2FDF7F0BFC2
:10473000A3785A09012A40F0C58103F00F0E13F047
:10474000100300F016823F4FE3782679A4F80603A1
:10475000F91886EA030084F8E8213B46C4F8FC72A5
:10476000C4F80013FA1F84F80803A4F8046394F84B
:104770000803354F0CE012F8011BC4F8FC62BA4282
:1047800080EA0100197007D2D4F80013D4F8FC3283
:10479000994203F10106EED1BA4284F8080300F011
:1047A000A782127894F808339A4200F05482274B7B
:1047B000C4F8EC3200220133B4F80413C4F8F03228
:1047C00084F8E82101234FF6F672A4F8F41284F875
:1047D000EC3184F8F832A4F8F622FFF76AB9D4F87D
:1047E000643403EB83035B000493FEF762BAE825AD
:1047F0000321E2E44FF00309154EEFE6DC39002017
:10480000F82A002058A08B41B43900202C670020E2
:10481000E823030858670020EC230308B939002077
:10482000AC3900209064002062390020641A002016
:10483000643900207C440020942A0020681D002058
:10484000D51A0020741D0020701D0020541F002068
:10485000F8230308D94B93E8030006AA82E8030073
:10486000104614F0F7F8A9E5DFF89883102014F04B
:10487000DFF8D34AD8F8183082FB0329DB17C3EBE3
:1048800069195FFA89F014F0A9F8C9F3072014F048
:10489000A5F8212014F0CCF8D8F81830C84AD81759
:1048A00082FB0328C0EB6810642202FB103383EA0A
:1048B000E370A0EBE370C0B214F090F8304614F04F
:1048C0008DF8FDF711BEBF4AD278002A0CBF042034
:1048D0000520FEF73DBE012230681A7000F09AFFF5
:1048E0000546306800F096FF6F067DF4A5AC8A2877
:1048F00000F098818E287DF49FAC94F8CC31002B89
:104900007DF4B4ACB04BC4F8D4312D2384F8D83145
:10491000D4F8D421FDF794BCB4F9F612D4F8F072AF
:10492000501C02F00F0242F010020029B8BF42F002
:10493000200294F8F4128DF81820BA1B82EA0106BE
:10494000F6B28DF8192084F80B0384F80C630DF18E
:104950001A02FFF7F9BADBF800309C4A9C4E03F4C8
:104960008003002B16BF16464FF004094FF00309D1
:1049700024E60125FEF7B3B8154694461146019288
:1049800004929646FDF7B2BFB4F86861DFF87892FA
:104990003601B9F800206421B6B201FB02325B0097
:1049A000B2FBF3F346EA0326B6B2C3F303231E4376
:1049B000062014F03DF8F0B214F010F8300A14F0AC
:1049C0000DF8844EB4F8683198F8002096F8311349
:1049D00001339BB2012993FBF2F002FB1033A4F8E0
:1049E000683100F06E81B9F800007B496E2303FB4B
:1049F00000F396F8320381FB03E14FEAE378C8EB5A
:104A0000A10818B11FFA88F898FBF2F8DFF8B09106
:104A10001FFA88F8A9FB08393A204FEA591914F00F
:104A200007F81FFA89F3D8B2019313F0D7FF019B5F
:104A3000180A13F0D3FF3B2013F0FAFF642303FBA3
:104A400019839BB26548053380FB0320DB17C3EB5A
:104A5000A000C0B213F0C2FF002013F0BFFF282057
:104A600013F0E6FF5E4BDFF874811B6888FB0328B8
:104A7000DB17C3EBA8085FFA88F013F0AFFFC8F3A9
:104A8000072013F0ABFF042013F0D2FFB6F86E320C
:104A9000002B40F00781534B1E6886F31006F0B2DE
:104AA00013F09CFFC6F3072013F098FF09E44FF0C2
:104AB00004094D4E92E501234C4884F86A3113F005
:104AC000C9FF7BE44A4B4B4AC4F8EC32591C012322
:104AD00084F8E80184F8EC01C4F8F012C4F8F42278
:104AE00084F8F832FEF7E5BF00263046FFF7D8BB62
:104AF0003046FFF7C2BB404E112013F099FF3388B8
:104B00003E4A4FF4F36909FB03F382FB0312DB1700
:104B1000C3EB6233D8B2019313F060FF019BC3F380
:104B2000072013F05BFF192013F082FF338824491C
:104B300009FB03F981FB09234FEAE979C9EB631308
:104B400081FB0321DA17C2EB6112642101FB1233EE
:104B5000D8B213F043FF002013F040FF98F8003064
:104B6000274A990716887FF5B8ABF5B2360AFFF7E2
:104B7000B5BB94F8E821002A3EF49BAF94F80923D2
:104B8000013202F00F02724500F0958084F8E8319E
:104B9000FEF78FBF4B1CDBB2042B84F80E334FEAB9
:104BA00001617FF42DAAFFF728BA154B1B8807EE89
:104BB000903AF8EE677AFEF7A6BB00BFB0F802089D
:104BC0001F85EB5160670020D81E0020E8230308F2
:104BD000E0230308645D0020310CC330676666661D
:104BE00064390020942A0020F0230308DC670020A9
:104BF000541F00200000F6FF7A73002089B5F814D6
:104C0000787300207C440020623900200199322012
:104C100013F086FEFFF7C5B906AB01930DF11E0533
:104C2000FFF7AFB9494B1B689D067DF505AB94F8BE
:104C3000CC31002B7DF41AAB454BC4F8D4312D2375
:104C400084F8D83164E6E8B213F0C8FE280A13F0FD
:104C5000C5FEFFF794BB3F4BD4F8FC22C4F80023F9
:104C6000002703F53872114603F5F076C4F8F022F8
:104C700003F53C703A46C4F8FC32C4F8F472C4F848
:104C8000EC6284F8E8710AF007FE013034D0D4F801
:104C9000EC32C4F8F0320123C4F8EC6284F8F83244
:104CA000FEF707BF17F0F4FE13F098FE002013F094
:104CB00095FEFFF706BBD4F80013D4F8FC32264A61
:104CC00055E5392013F0B4FEB9F800805FFA88F09A
:104CD00013F084FE4FEA182013F080FEBFE6F96956
:104CE0003B6A99423BBFFA685218CB1AD31AFBE4CD
:104CF00084F809E3FEF7DDBED4F8EC320222591C39
:104D0000C4F8EC121A70C2E715469646FDF7EEBDE0
:104D1000154694469646FDF7E9BD9646FDF7E6BD75
:104D20001546944611460192049203929646FDF769
:104D3000DDBD1546944611469646FDF7D7BD15468E
:104D40009446114601929646FDF7D0BD10670020AB
:104D5000081F0020741D00206B1D002003682DE932
:104D6000F041DF691FB13B46BDE8F0411847002A1A
:104D7000164611DD04460D460E4400E023689B688C
:104D8000204698470028F9D0236815F8011B1B68B6
:104D900020469847AE42F1D1BDE8F08170B410F8DA
:104DA0000E3C50F8044C002B40D030F80C2C20F86E
:104DB0000A1C8C4D10F80F6C8B4B891A89B200229B
:104DC00020F8081C25F8161000F80E2C1D786179C3
:104DD0002368012D75D0154616461446002958D073
:104DE000042900F09380082900F0AA80196A4EF681
:104DF000FF7421401962DC69196A40F6FF452C40B6
:104E000045F6FF7544F480742940224341F48051F3
:104E1000DA611962DA694FF2FF310A40DA61DA6960
:104E2000DA61002300F8063C70BC704701256E4A29
:104E300000F80E5C20F80C1C107861792268A842FA
:104E40005ED01C461D461846002940D0042900F0BB
:104E50009380082900F0AA80116A4EF6FF70014085
:104E60001162D169106A40F6FF44214045F6FF7493
:104E700041F4807120400B4340F44050D3611062F4
:104E8000D3694FF2FF310B40D361D369D36170BC5A
:104E900070471A6A22F001021A6299691A6A21F0AF
:104EA000F30141F0010122F00A0242F00102214324
:104EB00099611A629A6922F00C029A619A699A6160
:104EC000AFE74FF44052302516462C4686E7136A6A
:104ED00023F0010313629169136A21F0F30141F099
:104EE000010123F00A0343F00303014391611362BC
:104EF000936923F00C0393619369936170BC7047CD
:104F00004FF4405330241D4620469DE71A6A4FF661
:104F1000EF710A401A629A69196A22F473424FF6D5
:104F20005F7442F480722140164341F010019E618B
:104F300019629A6922F440629A619A699A6170E7EB
:104F40001A6A4FF6FF610A401A62DA691C6A92B265
:104F500022F0F3024FF2FF5142F0010221401543CB
:104F600041F48071DD611962DA694FF6F3710A402C
:104F7000DA61DA69DA6154E7136A4FF6EF710B40D0
:104F800013629169136A21F473414FF65F7041F423
:104F90008071034043F030030D43956113629369C0
:104FA00023F440639361936993613DE7136A4FF67D
:104FB000FF610B401362D369106A9BB223F0F303C5
:104FC0004FF2FF5143F0010301401C4341F4407193
:104FD000D4611162D3694FF6F3710B40D361D36989
:104FE000D36121E7AC4F0020DD64002010F80A3CBB
:104FF0000133DBB20A2B00F80A3C07D9044A10F847
:10500000131C002322F8113000F80A3C704700BF3F
:10501000AC4F0020F8B56C4F6C4B38786C4C0130BD
:10502000A3FB00231B096568226CA66803EB8303BE
:10503000A0EB8303A9423B7001EB020330D294F84A
:105040004820002A50D0634A03F580331078B3FB20
:10505000F0F39E422DD39A1B4FF4803595FBF0F070
:105060000244E26040F68C2000258242A360616029
:1050700084F8485025D9237894F94520934245D0A7
:10508000002294F9441084F846205DB28B424BD044
:105090000023012284F84550237084F84720F8BD8E
:1050A0004C4A1078B3FBF0F39E42D4D294F84820D7
:1050B00002B34FF4803292FBF0F09A1B121AE260B6
:1050C000D0E794F8473073B1A2F2EF2140F2DA53FF
:1050D000994211D823780B2B0ED8191D0133237058
:1050E00044F82120F8BDF8BD3A480078B3FBF0F34E
:1050F0009E42B0D21046E0E70023194684F84730BC
:1051000030223548BDE8F84029F0E7BE1A1F082ACA
:10511000B6D894F84620182A51D8013284F846208F
:105120005DB294F94410B1E794F84720002AAFD05B
:105130002A48002B34D022690280012B30D06269CA
:105140004280022B2CD0A2698280032B28D0E269F6
:10515000C280042B24D0226A0281052B20D0626AEF
:105160004281062B1CD0A26A8281072B18D0E26AEA
:10517000C281082912D0226B028209290ED0626BEB
:1051800042820A290AD0A26B82820B2908D0E36BE3
:10519000C382134A13780133137079E70B2BF8DCC1
:1051A000C3EBC3720B2B4FEA420202F1180200EB71
:1051B0004100C8BF0222002129F08FFEE9E75DB25D
:1051C00084F84450294661E7FC210020CDCCCCCCAA
:1051D000C0650020551A0020D0650020AC4F00208B
:1051E000A94F002030B40E4D0E4B2A780E4C0132E0
:1051F000A3FB02031B09206C03EB8303A2EB8303D5
:105200004FF6FF72914200F101002B70084408BF75
:105210000123206408BF84F8483030BC704700BFC9
:10522000FC210020CDCCCCCCC0650020002859D07A
:105230002DE9F04F2C4DDFF8C0802C4FDFF8BCA0DB
:10524000DFF8BCB0DFF8BC9000EB800005EB800E0F
:1052500050264FF0000C05E055F8143B7545C3F897
:1052600000C028D02B7A002BF6D06C68A30A4345E7
:105270002ED022D84B452DD01D4A93422CD0B3F5C9
:10528000801F23D0FE23EFF3128286F31288606A18
:10529000616903EB830307EBC303013041F00101B4
:1052A0005862D2B2616182F3118855F8143B75459A
:1052B000C3F800C0D6D1BDE8F08F534510D05B4590
:1052C0000CD00C4A9342DDD10423DCE70123DAE75A
:1052D0000023D8E70223D6E70323D4E70623D2E747
:1052E0000523D0E7704700BF0C6600205C29002032
:1052F00002001000500010004B0010005100100080
:105300005200100001001000704700BF00EB800049
:10531000024B53F820301960704700BF0C66002024
:1053200010B400EB8000094C094A80002318A1F555
:105330007A715B8920585DF8044B03FB01F182FB15
:105340000132C917C1EBA211016070470C66002041
:10535000D34D6210704700BFA1F57A7107EE901A25
:105360009FED087A9FED080A084BF8EEE77A10B532
:1053700000EB8000A7EE870A53F8204027F0A2FC3C
:10538000206010BDEC51B83F0000B4430C66002013
:1053900001EB4101C90007EE101ADFED087A084B56
:1053A000B8EEC70A10B500EB800020EE270A53F8CC
:1053B000204027F087FC206010BD00BFABAA2A3D2B
:1053C0000C660020CA0000EE102A10B500EB800029
:1053D000044BBAEEEE0A53F8204027F073FC20602D
:1053E00010BD00BF0C6600202DE9F047AB4C96B015
:1053F000A0429DF878608A4690461F4600F02481BE
:10540000A74B984200F06081A64B984203D0002041
:1054100016B0BDE8F087A44AA44CD369A44DC4F8E3
:10542000B48043F48023D36104F5A06104F5C06225
:105430004FF48073C4F8C010C4F8C420C4F8B83066
:10544000C4F8BC30C4F8FC00C4F8AC5023F030FD04
:105450000323014600933A46334696480DF1580916
:1054600023F0E4FE944B49F8503D484623F020FEDB
:10547000AC34256D6771A6712A68C4F82CA000238E
:105480002362E361A362636222F00102012116F04C
:105490000403C4F8088084F844102A6000F0CA802D
:1054A00016F0020F14BF4FF4005000204FF4A0512B
:1054B0002B6823F001032B606A6822F440520243F8
:1054C0006A602B6807F00106002E23F4B0530BBF6F
:1054D0000022042208200C2023F00C0317F00207FE
:1054E00018BF02460B4313432B60AB6823F4407391
:1054F000AB60484614F0ACFB684B9D4200F0A280C4
:10550000674B9D4200F00B81664B9D4200F0098184
:105510006A4B9D420CBF119B129B2A68120448BF24
:105520005B00B3FBF8F108FB1133B3EB580F2B68AA
:1055300028BF01311B0405D54FF6F0730B40C1F3B2
:105540004201194389B2A9816079216DA27900F0E5
:105550000203002B15BF4FF440334FF480334FF458
:105560000035002510F0010F486808BF2B46D5070D
:105570004CBF034320EA03034B608B6812074CBF08
:1055800043F0080323F008038B600B6843F001032A
:105590000B601EB3206B002800F0CA80D4F84C804A
:1055A000E568666914F066FA236B216D1A6822F4C7
:1055B000FF4222F0700242F48552ADB21A605D6083
:1055C000C3F80880DE601A6842F001021A608A6837
:1055D00042F040028A605B689BB2236417B3606B41
:1055E000002800F0A080A66C256914F043FA636BD4
:1055F000216D1A6822F4FF4222F0700242F48452B4
:10560000002042F01002ADB21A605D609E60D8606A
:105610001A6842F002021A60586058608B6843F0C2
:1056200080038B600B68204643F001030B6016B0CB
:10563000BDE8F08716F0020600F0818019464FF4AD
:10564000005035E70E9B68E7174A184C93691C49D0
:10565000C4F80C8043F4804301259361DFF850E0E7
:10566000009504F5807304F500724FF48075606551
:10567000A361E261C4F804E0A1F1080033462561AA
:1056800065610DF158093A4623F0D0FD0D4B49F8FC
:10569000503D4846043423F00BFDEAE60038014053
:1056A000004400400048004000100240FC2100205F
:1056B00000F902086876002027010001004C004034
:1056C000E8750020250100011E4A1F4CD3691F49BF
:1056D000C4F8608043F400330225D361DFF874E03E
:1056E000009504F5407304F580624FF48075C4F8AA
:1056F000A800E3662267C4F858E0A1F10800334629
:105700006566A5660DF158093A4623F08FFD104BEA
:1057100049F8503D4846583423F0CAFCA9E60F9B8F
:10572000FBE6109BF9E60B6843F080030B6079E71A
:1057300020230B620B6843F020030B604EE73146D9
:105740003046B5E600100240FC2100201076002013
:105750002601000100F9020810B50409013C052CDE
:1057600017DC0D4B33F8142000F00F0042FA00F361
:1057700013F001030DD0012303FA00F001381040AB
:1057800025F070FB054A064B125D104403EBC00088
:1057900010BD002010BD00BF80230308782303083C
:1057A0009875002003685B6A03B11847704700BF13
:1057B00003681B6A03B11847704700BF03682DE9EF
:1057C000F041DF691FB13B46BDE8F0411847002AB0
:1057D000164611DD04460D460E4400E023689B6822
:1057E000204698470028F9D0236815F8011B1B684C
:1057F00020469847AE42F1D1BDE8F08103689B692D
:10580000184700BF03685B69184700BF03681B693E
:10581000184700BF0368DB68184700BF03689B6830
:10582000184700BF03685B68184700BF03681B6820
:10583000184700BF38B50C46097849B10546013410
:105840002B6828461B68984714F8011B0029F7D1DC
:1058500038BD00BF1C4B1A680AB1002111605A699B
:105860000AB1002111609A6A0AB100211160DA6B55
:105870000AB1002111601A6D0AB1002111605A6E3F
:105880000AB1002111609A6F0AB100211160D3F8AA
:105890008C200AB100211160D3F8A0200AB10021A8
:1058A0001160D3F8B4200AB100211160D3F8C820E8
:1058B0000AB100211160D3F8DC300BB100221A606C
:1058C000024B00221A7070470C66002040580020DE
:1058D0002DE9F04F0C68DFF80483DFF8FCC225885F
:1058E000BA4E85B008FB02F26445B6FBF2F603F14E
:1058F000FF3806F1FF36BDF838E09DF83C70B6B2CF
:10590000AAB21FFA88F860D0B14DAC425DD0B4F1B4
:10591000804F5AD0A5F59835AC4256D005F5806534
:10592000AC4252D0AB4DAC4255D005F58065AC428F
:1059300051D022F4407205F58C3592B2AC422280EF
:10594000C4F82C8026850ED0A14A94420BD002F5D3
:105950004062944207D002F58062944203D002F57F
:105960008062944201D100222286012262614D7937
:10597000CA790FB182F0020212F0040630D0002181
:1059800012F0020F4FF040070CBF4FF00809894694
:10599000884603918A468C460A4601914FF48066F8
:1059A00002974FF0040B0C2D00F2E380DFE815F0B6
:1059B000B000E100E100E1008B00E100E100E10066
:1059C0006400E100E100E1002B00824D22F0700252
:1059D000AC4292B2A9D12280C4F82C802685C4E7BB
:1059E0004FF480670397012702F002020296B34644
:1059F000B1464FF480414FF480584FF0100A4FF4F5
:105A0000807C0197CFE7266ADFF8CCC126F4805668
:105A10002662266A6768D4F81C9026F4005646EA87
:105A20000808644529F4E64648EA023246F4C046CE
:105A300000F0EF800CF5006C644500F0EA806760D0
:105A4000E661C4F840E02262E26942F40062E26189
:105A5000626C42F4004262642288214692B242F0B3
:105A6000010221F8342B00224E1943814460066064
:105A70004A5105B0BDE8F08F216A574F21F480717B
:105A80002162D4F820B06168D4F81CA02BF4007B0C
:105A90004BEA0C0C2AF0730ABC424CEA02224AF090
:105AA000600A00F0AA8007F50067BC4200F0A580FC
:105AB0006160C4F81CA0C4F83CE02262E26942F0D4
:105AC0000802E261C4E7216A434F21F0100121621C
:105AD000D4F820C06668A1692CF0200C21F08071F8
